:020000040800F2
:1000000030040020A90100084D0E0008590E000818
:10001000610E0008690E0008710E00080000000063
:1000200000000000000000000000000015020008B1
:10003000150200080000000015020008790E0008F3
:10004000890E0008950E0008A10E0008AD0E0008EC
:10005000B90E0008C50E0008D10E0008DD0E00081C
:1000600015020008E90E0008150200081502000834
:100070001502000815020008150200081502000804
:100080001502000815020008150200080000000013
:100090000000000000000000000000001502000841
:1000A000150200081502000815020008F50E0008E8
:1000B000010F0008250F0008510F00087D0F0008F0
:1000C000890F0008950F0008A10F0008AD0F000868
:1000D000B90F000815020008C50F0008D10F00086D
:1000E000DD0F0008E90F00081502000800000000FD
:1000F0000000000000000000000000000000000000
:1001000000000000000000000000000000000000EF
:1001100000000000000000001502000815020008A1
:100120005FF808F180B485B000AF78600B467B8043
:100130004FF00003FB734FF00003BB814FF000034F
:100140007B817B681B8A9AB27B881340BB817B686A
:100150009B899AB27B8813407B81BB89002B06D098
:100160007B89002B03D04FF00103FB7302E04FF0BB
:100170000003FB73FB7B184607F11407BD4680BCE8
:10018000704700BF80B483B000AF78600B467B80BF
:100190007B886FEA03039AB27B681A8207F10C0727
:1001A000BD4680BC704700BF80B582B000AF40F64E
:1001B000F473C0F600037B6040F20003C2F2000358
:1001C0003B600BE07B681A683B681A603B6803F190
:1001D00004033B607B6803F104037B603A6840F2F0
:1001E0001403C2F200039A42ECD3084808494FF0C6
:1001F00000028842B8BF40F8042BFADB00F00EF88A
:1002000000F010FA07F10807BD4680BD1400002079
:100210003000002080B400AFFEE700BF80B500AF23
:100220004FF48053C4F202034FF48052C4F202022E
:10023000126842F001021A604FF48052C4F20202C6
:100240004FF48053C4F2020359684FF00003CFF615
:10025000FF030B4053604FF48053C4F202034FF48A
:100260008052C4F20202126822F0847222F48032B8
:100270001A604FF48053C4F202034FF48052C4F268
:100280000202126822F480221A604FF48053C4F2F2
:1002900002034FF48052C4F20202526822F4FE02BA
:1002A0005A604FF48053C4F202034FF41F029A6065
:1002B0004FF48053C4F202034FF00002DA6200F000
:1002C00009F84FF46D43CEF200034FF000629A60DC
:1002D00080BD00BF80B500AF00F002F880BD00BF58
:1002E00080B483B000AF4FF000037B604FF0000399
:1002F0003B604FF48053C4F202034FF48052C4F2C7
:100300000202126842F480321A604FF48053C4F241
:1003100002031B6803F400333B607B6803F10103B5
:100320007B603B68002B03D17B68B3F5A06FECD1F9
:100330004FF48053C4F202031B6803F40033002B14
:1003400003D04FF001033B6002E04FF000033B603D
:100350003B68012B6DD14FF48053C4F202034FF47C
:100360008052C4F2020252685A604FF48053C4F2C1
:1003700002034FF48052C4F2020252685A604FF4F2
:100380008053C4F202034FF48052C4F20202526856
:100390005A604FF48053C4F202034FF48052C4F207
:1003A0000202526822F47C125A604FF48053C4F265
:1003B00002034FF48052C4F20202526842F49812CF
:1003C0005A604FF48053C4F202034FF48052C4F2D7
:1003D0000202126842F080721A6000BF4FF480532C
:1003E000C4F202031B6803F00073002BF6D04FF435
:1003F0008053C4F202034FF48052C4F202025268E6
:1004000022F003025A604FF48053C4F202034FF407
:100410008052C4F20202526842F002025A6000BFE7
:100420004FF48053C4F202035B6803F00C03082B03
:10043000F6D107F10C07BD4680BC704780B489B087
:1004400000AF786039604FF00003FB614FF00003AC
:100450003B614FF00003BB614FF00003FB604FF0C6
:1004600000037B614FF00003BB603B68DB7803F067
:100470000F03FB613B68DB7803F01003002B04D013
:100480003B689B78FA691343FB613B681B88DBB2CE
:10049000002B4ED07B681B687B614FF00003BB6173
:1004A00041E0BB694FF0010202FA03F3FB603B68D5
:1004B0001B881A46FB6813403B613A69FB689A4205
:1004C0002DD1BB694FEA8303FB60FB684FF00F023D
:1004D00002FA03F3BB60BB686FEA03037A69134057
:1004E0007B61FB68FA6902FA03F37A6913437B6163
:1004F0003B68DB78282B07D1BB694FF0010202FA79
:1005000003F27B685A610AE03B68DB78482B06D12E
:10051000BB694FF0010202FA03F27B681A61BB6902
:1005200003F10103BB61BB69072BBAD97B687A6908
:100530001A603B681B88FF2B53D97B685B687B6123
:100540004FF00003BB6146E0BB6903F108034FF0C5
:10055000010202FA03F3FB603B681B881A46FB6842
:1005600013403B613A69FB689A4230D1BB694FEA5C
:100570008303FB60FB684FF00F0202FA03F3BB60DA
:10058000BB686FEA03037A6913407B61FB68FA6911
:1005900002FA03F37A6913437B613B68DB78282B0B
:1005A00008D1BB6903F108034FF0010202FA03F21C
:1005B0007B685A613B68DB78482B08D1BB6903F143
:1005C00008034FF0010202FA03F27B681A61BB696B
:1005D00003F10103BB61BB69072BB5D97B687A695D
:1005E0005A6007F12407BD4680BC704780B483B0D1
:1005F00000AF78600B467B807A887B681A6107F1D0
:100600000C07BD4680BC704780B483B000AF7860F3
:100610000B467B807A887B685A6107F10C07BD46E0
:1006200080BC704780B500AF00F07AF84FF480507E
:10063000C4F201004FF40071FFF7D8FF4FF06400DF
:1006400000F004F94FF48050C4F201004FF400713F
:10065000FFF7DAFF4FF0640000F0F8F8E6E700BFBC
:1006600080B483B000AF03463960FB7197F907305F
:10067000002B10DA4FF46D43CEF20003FA7902F04A
:100680000F02A2F104013A68D2B24FEA0212D2B2CA
:100690005B181A760DE04FF46143CEF2000397F930
:1006A00007103A68D2B24FEA0212D2B25B1883F84E
:1006B000002307F10C07BD4680BC704780B582B0AF
:1006C00000AF78607A686FF07F439A4202D94FF0AA
:1006D00001031FE04EF21003CEF200037A6822F00D
:1006E0007F4202F1FF325A604FF0FF304FF00F01AE
:1006F000FFF7B6FF4EF21003CEF200034FF00002F8
:100700009A604EF21003CEF200034FF007021A6017
:100710004FF00003184607F10807BD4680BD00BF33
:1007200080B500AF00F006F800F058F800F070F85F
:1007300080BD00BF80B582B000AF4FF4803000F0C4
:10074000AFF800F0F1F80346FB71FB79012B2FD1D4
:100750004FF0020000F038FB4FF0100000F054FBA7
:100760004FF0000000F076F94FF0000000F0B2F911
:100770004FF4806000F08EF94FF480304FF4802108
:1007800000F004F94FF0010000F024F900BF4FF031
:10079000390000F0D1FA0346002BF8D04FF00200E8
:1007A00000F028F900BF00F045F90346082BFAD104
:1007B00040F21800C2F2000000F0AEF941F63F101E
:1007C000C0F20100FFF77AFF40F2FD104FF0010187
:1007D00000F088FA07F10807BD4680BD80B582B0F9
:1007E00000AF4FF01003FB714FF00103BB714FF4EA
:1007F0000073BB8007F104034FF48050C4F2010082
:100800001946FFF71BFE07F10807BD4680BD00BF74
:1008100080B400AFBD4680BC704700BF80B400AF5D
:1008200040F22C03C2F200031B68002B0BD040F2F5
:100830002C03C2F200031B6803F1FF3240F22C03C9
:10084000C2F200031A60BD4680BC704780B483B01A
:1008500000AF78607A6840F22C03C2F200031A609D
:1008600000E000BF40F22C03C2F200031B68002B23
:10087000F7D107F10C07BD4680BC704780B400AFCC
:1008800040F21403C2F200031B6803F1010240F2BC
:100890001403C2F200031A60BD4680BC704700BF5B
:1008A00080B483B000AF78604FF48053C4F2020389
:1008B0004FF48052C4F20202126822F480321A60AD
:1008C0004FF48053C4F202034FF48052C4F2020288
:1008D000126822F480221A607B68B3F5803F03D04F
:1008E000B3F5802F0DD019E04FF48053C4F202030A
:1008F0004FF48052C4F20202126842F480321A604D
:100900000DE04FF48053C4F202034FF48052C4F25E
:100910000202126842F4A0221A6000E000BF07F150
:100920000C07BD4680BC704780B582B000AF4FF069
:1009300000033B604FF00003FB714FF00003BB71FD
:100940004FF0310000F0F8F90346BB713B6803F14A
:1009500001033B603B68B3F5A06F02D0BB79002B6D
:10096000EED04FF0310000F0E7F90346002B03D042
:100970004FF00103FB7102E04FF00003FB71FB79C4
:10098000184607F10807BD4680BD00BF80B485B09A
:1009900000AF786039604FF00003FB604FF4805384
:1009A000C4F202035B68FB60FB6823F47413FB6012
:1009B0007A683B681343FA681343FB604FF4805333
:1009C000C4F20203FA685A6007F11407BD4680BCFE
:1009D000704700BF80B483B000AF0346FB714FF097
:1009E0006003C4F24223FA791A6007F10C07BD468E
:1009F00080BC704780B485B000AF78604FF00003D2
:100A0000FB604FF48053C4F202035B68FB60FB6839
:100A100023F00303FB60FA687B681343FB604FF429
:100A20008053C4F20203FA685A6007F11407BD4606
:100A300080BC704780B400AF4FF48053C4F202030F
:100A40005B68DBB203F00C03DBB21846BD4680BC2A
:100A5000704700BF80B485B000AF78604FF00003EE
:100A6000FB604FF48053C4F202035B68FB60FB68D9
:100A700023F0F003FB60FA687B681343FB604FF4DC
:100A80008053C4F20203FA685A6007F11407BD46A6
:100A900080BC704780B485B000AF78604FF0000331
:100AA000FB604FF48053C4F202035B68FB60FB6899
:100AB00023F4E063FB60FA687B681343FB604FF448
:100AC0008053C4F20203FA685A6007F11407BD4666
:100AD00080BC704780B485B000AF78604FF00003F1
:100AE000FB604FF48053C4F202035B68FB60FB6859
:100AF00023F46053FB607B684FEAC303FA68134337
:100B0000FB604FF48053C4F20203FA685A6007F1A5
:100B10001407BD4680BC704780B489B000AF7860D0
:100B20004FF00003FB614FF00003BB614FF0000387
:100B30007B614FF000033B614FF00003FB604FF41B
:100B40008053C4F202035B6803F00C03FB61FB6992
:100B5000042B0AD0082B0FD0002B47D17A684FF412
:100B60009053C0F27A03136047E07A684FF49053D1
:100B7000C0F27A03136040E04FF48053C4F20203E2
:100B80005B6803F47013BB614FF48053C4F202033B
:100B90005B6803F480337B61BB694FEA934303F1E5
:100BA0000203BB617B69002B09D1BA694FF4106362
:100BB000C0F23D0303FB02F27B681A601DE04FF4B4
:100BC0008053C4F20203DB6A03F00F0303F1010355
:100BD000FB604FF49053C0F27A03FA68B3FBF2F370
:100BE000BA6902FB03F27B681A6006E07A684FF488
:100BF0009053C0F27A03136000BF4FF48053C4F2E5
:100C000002035B6803F0F003FB61FB694FEA131317
:100C1000FB6140F20003C2F20003FA699B181B78E3
:100C2000DBB23B617B681A683B6922FA03F27B689E
:100C30005A604FF48053C4F202035B6803F4E0632C
:100C4000FB61FB694FEA1323FB6140F20003C2F230
:100C50000003FA699B181B78DBB23B617B685A681A
:100C60003B6922FA03F27B689A604FF48053C4F226
:100C700002035B6803F46053FB61FB694FEAD32313
:100C8000FB6140F20003C2F20003FA699B181B7873
:100C9000DBB23B617B685A683B6922FA03F27B68EE
:100CA000DA604FF48053C4F202035B6803F44043FC
:100CB000FB61FB694FEA9333FB6140F21003C2F220
:100CC0000003FA699B181B78DBB23B617B68DA682A
:100CD0003B69B2FBF3F27B681A6107F12407BD465A
:100CE00080BC704780B483B000AF78600B46FB7067
:100CF000FB78002B0CD04FF48053C4F202034FF466
:100D00008052C4F2020291697A680A439A610DE046
:100D10004FF48053C4F202034FF48052C4F2020233
:100D200091697A686FEA02020A409A6107F10C073A
:100D3000BD4680BC704700BF80B487B000AF03469B
:100D4000FB714FF00003FB604FF000037B614FF03D
:100D50000003FB74FB794FEA5313DBB2FB60FB68C3
:100D6000012B06D14FF48053C4F202031B687B6150
:100D70000FE0FB68022B06D14FF48053C4F202034C
:100D80001B6A7B6105E04FF48053C4F202035B6A87
:100D90007B61FB7903F01F03FB60FB687A6922FA31
:100DA00003F303F00103002B03D04FF00103FB74A6
:100DB00002E04FF00003FB74FB7C184607F11C07B0
:100DC000BD4680BC704700BF80B485B000AF78607E
:100DD0004FF00003FB604FF40053C4F202031B68A2
:100DE000FB60FB6803F03803FB60FA687B68134321
:100DF000FB604FF40053C4F20203FA681A6007F173
:100E00001407BD4680BC704780B483B000AF7860E3
:100E10004FF40053C4F202034FF40052C4F2020232
:100E2000126822F010021A604FF40053C4F2020359
:100E30004FF40052C4F2020211687A680A431A6041
:100E400007F10C07BD4680BC704700BF80B400AFFF
:100E5000BD4680BC704700BF80B400AFFEE700BF56
:100E600080B400AFFEE700BF80B400AFFEE700BF74
:100E700080B400AFFEE700BF80B500AFFFF7CEFC47
:100E8000FFF7FCFC80BD00BF80B400AFBD4680BC56
:100E9000704700BF80B400AFBD4680BC704700BF44
:100EA00080B400AFBD4680BC704700BF80B400AFC7
:100EB000BD4680BC704700BF80B400AFBD4680BC5B
:100EC000704700BF80B400AFBD4680BC704700BF14
:100ED00080B400AFBD4680BC704700BF80B400AF97
:100EE000BD4680BC704700BF80B400AFBD4680BC2B
:100EF000704700BF80B400AFBD4680BC704700BFE4
:100F000080B500AF4FF080404FF00101FFF70AF9C4
:100F10000346002B05D04FF080404FF00101FFF752
:100F200031F980BD80B500AF4FF48060C4F200009D
:100F30004FF00101FFF7F6F80346002B07D04FF4FE
:100F40008060C4F200004FF00101FFF71BF980BD83
:100F500080B500AF4FF40060C4F200004FF0010113
:100F6000FFF7E0F80346002B07D04FF40060C4F20F
:100F700000004FF00101FFF705F980BD80B400AF1C
:100F8000BD4680BC704700BF80B400AFBD4680BC8A
:100F9000704700BF80B400AFBD4680BC704700BF43
:100FA00080B400AFBD4680BC704700BF80B400AFC6
:100FB000BD4680BC704700BF80B400AFBD4680BC5A
:100FC000704700BF80B400AFBD4680BC704700BF13
:100FD00080B400AFBD4680BC704700BF80B400AF96
:100FE000BD4680BC704700BF80B400AFBD4680BC2A
:040FF000704700BF87
:100FF40000000000010203040102030406070809BB
:0410040002040608D4
:0400000508000000EF
:00000001FF
